{
  "contractName": "Health",
  "abi": [
    {
      "anonymous": false,
      "inputs": [
        {
          "indexed": false,
          "internalType": "string",
          "name": "_fileHash",
          "type": "string"
        },
        {
          "indexed": false,
          "internalType": "address",
          "name": "_auth",
          "type": "address"
        }
      ],
      "name": "AuthAdded",
      "type": "event"
    },
    {
      "constant": true,
      "inputs": [],
      "name": "name",
      "outputs": [
        {
          "internalType": "string",
          "name": "",
          "type": "string"
        }
      ],
      "payable": false,
      "stateMutability": "view",
      "type": "function"
    },
    {
      "constant": true,
      "inputs": [
        {
          "internalType": "address",
          "name": "_address",
          "type": "address"
        }
      ],
      "name": "getUserReports",
      "outputs": [
        {
          "internalType": "string[]",
          "name": "",
          "type": "string[]"
        }
      ],
      "payable": false,
      "stateMutability": "view",
      "type": "function"
    },
    {
      "constant": true,
      "inputs": [
        {
          "internalType": "string",
          "name": "_fileHash",
          "type": "string"
        }
      ],
      "name": "getAuthsForReport",
      "outputs": [
        {
          "internalType": "address[]",
          "name": "",
          "type": "address[]"
        }
      ],
      "payable": false,
      "stateMutability": "view",
      "type": "function"
    },
    {
      "constant": false,
      "inputs": [
        {
          "internalType": "string",
          "name": "_fileHash",
          "type": "string"
        }
      ],
      "name": "GetDetailedReport",
      "outputs": [
        {
          "components": [
            {
              "internalType": "string",
              "name": "fileHash",
              "type": "string"
            },
            {
              "internalType": "address",
              "name": "User",
              "type": "address"
            },
            {
              "internalType": "address[]",
              "name": "Auths",
              "type": "address[]"
            }
          ],
          "internalType": "struct Health.File",
          "name": "",
          "type": "tuple"
        }
      ],
      "payable": false,
      "stateMutability": "nonpayable",
      "type": "function"
    },
    {
      "constant": false,
      "inputs": [
        {
          "internalType": "string",
          "name": "_fileHash",
          "type": "string"
        },
        {
          "internalType": "address",
          "name": "_auth",
          "type": "address"
        }
      ],
      "name": "addAuth",
      "outputs": [],
      "payable": false,
      "stateMutability": "nonpayable",
      "type": "function"
    },
    {
      "constant": false,
      "inputs": [
        {
          "internalType": "string",
          "name": "_fileHash",
          "type": "string"
        }
      ],
      "name": "SaveReport",
      "outputs": [
        {
          "internalType": "bool",
          "name": "",
          "type": "bool"
        }
      ],
      "payable": false,
      "stateMutability": "nonpayable",
      "type": "function"
    }
  ],
  "bytecode": "0x60806040526040518060400160405280600f81526020017f4865616c746820636f6e74726163740000000000000000000000000000000000815250600090805190602001906200005192919062000066565b503480156200005f57600080fd5b5062000115565b828054600181600116156101000203166002900490600052602060002090601f016020900481019282601f10620000a957805160ff1916838001178555620000da565b82800160010185558215620000da579182015b82811115620000d9578251825591602001919060010190620000bc565b5b509050620000e99190620000ed565b5090565b6200011291905b808211156200010e576000816000905550600101620000f4565b5090565b90565b61121180620001256000396000f3fe608060405234801561001057600080fd5b50600436106100625760003560e01c806306fdde03146100675780633c87558b1461008557806359ebee83146100b55780636d9e5b37146100d157806370a05afc14610101578063cbdce39914610131575b600080fd5b61006f610161565b60405161007c9190610f4b565b60405180910390f35b61009f600480360361009a9190810190610b1d565b6101ff565b6040516100ac9190610f30565b60405180910390f35b6100cf60048036036100ca9190810190610b5e565b610373565b005b6100eb60048036036100e69190810190610b1d565b6104cd565b6040516100f89190610eec565b60405180910390f35b61011b60048036036101169190810190610af4565b61057c565b6040516101289190610f0e565b60405180910390f35b61014b60048036036101469190810190610b1d565b6106a4565b6040516101589190610fbd565b60405180910390f35b60008054600181600116156101000203166002900480601f0160208091040260200160405190810160405280929190818152602001828054600181600116156101000203166002900480156101f75780601f106101cc576101008083540402835291602001916101f7565b820191906000526020600020905b8154815290600101906020018083116101da57829003601f168201915b505050505081565b6000600260003373ffffffffffffffffffffffffffffffffffffffff1673ffffffffffffffffffffffffffffffffffffffff16815260200190815260200160002082908060018154018082558091505090600182039060005260206000200160009091929091909150908051906020019061027b929190610862565b50506102856108e2565b82816000018190525033816020019073ffffffffffffffffffffffffffffffffffffffff16908173ffffffffffffffffffffffffffffffffffffffff1681525050806003846040516102d79190610ed5565b90815260200160405180910390206000820151816000019080519060200190610301929190610919565b5060208201518160010160006101000a81548173ffffffffffffffffffffffffffffffffffffffff021916908373ffffffffffffffffffffffffffffffffffffffff1602179055506040820151816002019080519060200190610365929190610999565b509050506001915050919050565b60006003836040516103859190610ed5565b908152602001604051809103902090503373ffffffffffffffffffffffffffffffffffffffff168160010160009054906101000a900473ffffffffffffffffffffffffffffffffffffffff1673ffffffffffffffffffffffffffffffffffffffff1614610427576040517f08c379a000000000000000000000000000000000000000000000000000000000815260040161041e90610f9d565b60405180910390fd5b806002018290806001815401808255809150509060018203906000526020600020016000909192909190916101000a81548173ffffffffffffffffffffffffffffffffffffffff021916908373ffffffffffffffffffffffffffffffffffffffff160217905550507feb6c0bd4e88fc8503513ec783a4e212650c906745cb5c13e14793c8d66f684c683836040516104c0929190610f6d565b60405180910390a1505050565b60606003826040516104df9190610ed5565b908152602001604051809103902060020180548060200260200160405190810160405280929190818152602001828054801561057057602002820191906000526020600020905b8160009054906101000a900473ffffffffffffffffffffffffffffffffffffffff1673ffffffffffffffffffffffffffffffffffffffff1681526020019060010190808311610526575b50505050509050919050565b6060600260008373ffffffffffffffffffffffffffffffffffffffff1673ffffffffffffffffffffffffffffffffffffffff168152602001908152602001600020805480602002602001604051908101604052809291908181526020016000905b82821015610699578382906000526020600020018054600181600116156101000203166002900480601f0160208091040260200160405190810160405280929190818152602001828054600181600116156101000203166002900480156106855780601f1061065a57610100808354040283529160200191610685565b820191906000526020600020905b81548152906001019060200180831161066857829003601f168201915b5050505050815260200190600101906105dd565b505050509050919050565b6106ac6108e2565b6003826040516106bc9190610ed5565b9081526020016040518091039020604051806060016040529081600082018054600181600116156101000203166002900480601f01602080910402602001604051908101604052809291908181526020018280546001816001161561010002031660029004801561076e5780601f106107435761010080835404028352916020019161076e565b820191906000526020600020905b81548152906001019060200180831161075157829003601f168201915b505050505081526020016001820160009054906101000a900473ffffffffffffffffffffffffffffffffffffffff1673ffffffffffffffffffffffffffffffffffffffff1673ffffffffffffffffffffffffffffffffffffffff1681526020016002820180548060200260200160405190810160405280929190818152602001828054801561085257602002820191906000526020600020905b8160009054906101000a900473ffffffffffffffffffffffffffffffffffffffff1673ffffffffffffffffffffffffffffffffffffffff1681526020019060010190808311610808575b5050505050815250509050919050565b828054600181600116156101000203166002900490600052602060002090601f016020900481019282601f106108a357805160ff19168380011785556108d1565b828001600101855582156108d1579182015b828111156108d05782518255916020019190600101906108b5565b5b5090506108de9190610a23565b5090565b604051806060016040528060608152602001600073ffffffffffffffffffffffffffffffffffffffff168152602001606081525090565b828054600181600116156101000203166002900490600052602060002090601f016020900481019282601f1061095a57805160ff1916838001178555610988565b82800160010185558215610988579182015b8281111561098757825182559160200191906001019061096c565b5b5090506109959190610a23565b5090565b828054828255906000526020600020908101928215610a12579160200282015b82811115610a115782518260006101000a81548173ffffffffffffffffffffffffffffffffffffffff021916908373ffffffffffffffffffffffffffffffffffffffff160217905550916020019190600101906109b9565b5b509050610a1f9190610a48565b5090565b610a4591905b80821115610a41576000816000905550600101610a29565b5090565b90565b610a8891905b80821115610a8457600081816101000a81549073ffffffffffffffffffffffffffffffffffffffff021916905550600101610a4e565b5090565b90565b600081359050610a9a816111b7565b92915050565b600082601f830112610ab157600080fd5b8135610ac4610abf8261100c565b610fdf565b91508082526020830160208301858383011115610ae057600080fd5b610aeb838284611164565b50505092915050565b600060208284031215610b0657600080fd5b6000610b1484828501610a8b565b91505092915050565b600060208284031215610b2f57600080fd5b600082013567ffffffffffffffff811115610b4957600080fd5b610b5584828501610aa0565b91505092915050565b60008060408385031215610b7157600080fd5b600083013567ffffffffffffffff811115610b8b57600080fd5b610b9785828601610aa0565b9250506020610ba885828601610a8b565b9150509250929050565b6000610bbe8383610bde565b60208301905092915050565b6000610bd68383610da6565b905092915050565b610be781611126565b82525050565b610bf681611126565b82525050565b6000610c0782611073565b610c1181856110d7565b9350610c1c83611048565b8060005b83811015610c4d578151610c348882610bb2565b9750610c3f836110ac565b925050600181019050610c20565b5085935050505092915050565b6000610c6582611068565b610c6f81856110c6565b9350610c7a83611038565b8060005b83811015610cab578151610c928882610bb2565b9750610c9d8361109f565b925050600181019050610c7e565b5085935050505092915050565b6000610cc38261107e565b610ccd81856110e8565b935083602082028501610cdf85611058565b8060005b85811015610d1b5784840389528151610cfc8582610bca565b9450610d07836110b9565b925060208a01995050600181019050610ce3565b50829750879550505050505092915050565b610d3681611138565b82525050565b6000610d4782611094565b610d51818561110a565b9350610d61818560208601611173565b610d6a816111a6565b840191505092915050565b6000610d8082611094565b610d8a818561111b565b9350610d9a818560208601611173565b80840191505092915050565b6000610db182611089565b610dbb81856110f9565b9350610dcb818560208601611173565b610dd4816111a6565b840191505092915050565b6000610dea82611089565b610df4818561110a565b9350610e04818560208601611173565b610e0d816111a6565b840191505092915050565b6000610e2560218361110a565b91507f4f6e6c7920757365722063616e2061646420417574686f7269736174696f6e7360008301527f21000000000000000000000000000000000000000000000000000000000000006020830152604082019050919050565b60006060830160008301518482036000860152610e9b8282610da6565b9150506020830151610eb06020860182610bde565b5060408301518482036040860152610ec88282610c5a565b9150508091505092915050565b6000610ee18284610d75565b915081905092915050565b60006020820190508181036000830152610f068184610bfc565b905092915050565b60006020820190508181036000830152610f288184610cb8565b905092915050565b6000602082019050610f456000830184610d2d565b92915050565b60006020820190508181036000830152610f658184610ddf565b905092915050565b60006040820190508181036000830152610f878185610d3c565b9050610f966020830184610bed565b9392505050565b60006020820190508181036000830152610fb681610e18565b9050919050565b60006020820190508181036000830152610fd78184610e7e565b905092915050565b6000604051905081810181811067ffffffffffffffff8211171561100257600080fd5b8060405250919050565b600067ffffffffffffffff82111561102357600080fd5b601f19601f8301169050602081019050919050565b6000819050602082019050919050565b6000819050602082019050919050565b6000819050602082019050919050565b600081519050919050565b600081519050919050565b600081519050919050565b600081519050919050565b600081519050919050565b6000602082019050919050565b6000602082019050919050565b6000602082019050919050565b600082825260208201905092915050565b600082825260208201905092915050565b600082825260208201905092915050565b600082825260208201905092915050565b600082825260208201905092915050565b600081905092915050565b600061113182611144565b9050919050565b60008115159050919050565b600073ffffffffffffffffffffffffffffffffffffffff82169050919050565b82818337600083830152505050565b60005b83811015611191578082015181840152602081019050611176565b838111156111a0576000848401525b50505050565b6000601f19601f8301169050919050565b6111c081611126565b81146111cb57600080fd5b5056fea365627a7a72315820446576a995e8b1a73bfcf95c440dd4d484ac692a0496e80c5d8fdc1edc79b6966c6578706572696d656e74616cf564736f6c63430005100040",
  "source": "pragma solidity^0.5.16;\r\npragma experimental ABIEncoderV2;\r\n\r\ncontract Health{\r\n\r\n  string public name = \"Health contract\";\r\n  mapping(address => address[]) UserAuthorisations;\r\n  mapping(address => string[])  UserReports; // maintain reports belonging to a user\r\n  struct File {\r\n    string fileHash;\r\n    address User;\r\n    address [] Auths;\r\n\r\n  }\r\n  mapping(string => File) Files;\r\n  event AuthAdded(\r\n    string _fileHash,\r\n    address _auth\r\n    );\r\n\r\n\r\n  function getUserReports(address _address) public view returns(string [] memory){\r\n    return UserReports[_address];\r\n  }\r\n\r\n  function getAuthsForReport(string memory _fileHash) public view returns(address [] memory ){\r\n    return Files[_fileHash].Auths;\r\n  }\r\n\r\n  function GetDetailedReport(string memory _fileHash) public returns(File memory){\r\n    return Files[_fileHash];\r\n  }\r\n  function addAuth(string memory _fileHash ,address _auth ) public {\r\n    File storage _file = Files[_fileHash];\r\n    require(_file.User == msg.sender, \"Only user can add Authorisations!\");\r\n\r\n    _file.Auths.push(_auth);\r\n    emit AuthAdded(_fileHash,_auth); //emit an event when new authorisation is given\r\n  }\r\n\r\n  function SaveReport(string memory _fileHash) public returns(bool){\r\n    UserReports[msg.sender].push(_fileHash);\r\n    File memory _file;\r\n    _file.fileHash = _fileHash;\r\n    _file.User = msg.sender;\r\n    Files[_fileHash] = _file;\r\n    return true;\r\n  }\r\n}\r\n",
  "sourcePath": "C:\\Users\\hp\\desktop\\b-healthy\\src\\contracts\\b-health.sol",
  "compiler": {
    "name": "solc",
    "version": "0.5.16+commit.9c3226ce.Emscripten.clang"
  },
  "schemaVersion": "3.0.23",
  "updatedAt": "2020-05-31T09:17:23.572Z",
  "networkType": "ethereum",
  "devdoc": {
    "methods": {}
  },
  "userdoc": {
    "methods": {}
  }
}