{
  "contractName": "Health",
  "abi": [
    {
      "inputs": [],
      "payable": false,
      "stateMutability": "nonpayable",
      "type": "constructor"
    },
    {
      "anonymous": false,
      "inputs": [
        {
          "indexed": false,
          "internalType": "address",
          "name": "_auth",
          "type": "address"
        }
      ],
      "name": "AuthAdded",
      "type": "event"
    },
    {
      "constant": true,
      "inputs": [],
      "name": "name",
      "outputs": [
        {
          "internalType": "string",
          "name": "",
          "type": "string"
        }
      ],
      "payable": false,
      "stateMutability": "view",
      "type": "function"
    },
    {
      "constant": false,
      "inputs": [],
      "name": "getAuthorisedUsers",
      "outputs": [
        {
          "internalType": "address[]",
          "name": "",
          "type": "address[]"
        }
      ],
      "payable": false,
      "stateMutability": "nonpayable",
      "type": "function"
    },
    {
      "constant": true,
      "inputs": [
        {
          "internalType": "address",
          "name": "_address",
          "type": "address"
        }
      ],
      "name": "getUserReports",
      "outputs": [
        {
          "internalType": "string[]",
          "name": "",
          "type": "string[]"
        }
      ],
      "payable": false,
      "stateMutability": "view",
      "type": "function"
    },
    {
      "constant": false,
      "inputs": [
        {
          "internalType": "string",
          "name": "_fileHash",
          "type": "string"
        }
      ],
      "name": "GetDetailedReport",
      "outputs": [
        {
          "components": [
            {
              "internalType": "string",
              "name": "fileHash",
              "type": "string"
            },
            {
              "internalType": "address",
              "name": "User",
              "type": "address"
            },
            {
              "internalType": "string",
              "name": "UserName",
              "type": "string"
            },
            {
              "internalType": "uint256",
              "name": "dated",
              "type": "uint256"
            }
          ],
          "internalType": "struct Health.File",
          "name": "",
          "type": "tuple"
        }
      ],
      "payable": false,
      "stateMutability": "nonpayable",
      "type": "function"
    },
    {
      "constant": false,
      "inputs": [
        {
          "internalType": "address",
          "name": "_auth",
          "type": "address"
        }
      ],
      "name": "addAuth",
      "outputs": [],
      "payable": false,
      "stateMutability": "nonpayable",
      "type": "function"
    },
    {
      "constant": false,
      "inputs": [
        {
          "internalType": "string",
          "name": "_fileHash",
          "type": "string"
        },
        {
          "internalType": "string",
          "name": "_username",
          "type": "string"
        }
      ],
      "name": "SaveReport",
      "outputs": [
        {
          "internalType": "bool",
          "name": "",
          "type": "bool"
        }
      ],
      "payable": false,
      "stateMutability": "nonpayable",
      "type": "function"
    }
  ],
  "bytecode": "0x60806040526040518060400160405280600f81526020017f4865616c746820636f6e747261637400000000000000000000000000000000008152506001908051906020019061004f9291906100a2565b5034801561005c57600080fd5b50336000806101000a81548173ffffffffffffffffffffffffffffffffffffffff021916908373ffffffffffffffffffffffffffffffffffffffff160217905550610147565b828054600181600116156101000203166002900490600052602060002090601f016020900481019282601f106100e357805160ff1916838001178555610111565b82800160010185558215610111579182015b828111156101105782518255916020019190600101906100f5565b5b50905061011e9190610122565b5090565b61014491905b80821115610140576000816000905550600101610128565b5090565b90565b61112280620001576000396000f3fe608060405234801561001057600080fd5b50600436106100625760003560e01c806306fdde03146100675780635422224e146100855780636d69804a146100a157806370a05afc146100d15780637f68d5c414610101578063cbdce3991461011f575b600080fd5b61006f61014f565b60405161007c9190610ebb565b60405180910390f35b61009f600480360361009a9190810190610aa6565b6101ed565b005b6100bb60048036036100b69190810190610b10565b61031c565b6040516100c89190610ea0565b60405180910390f35b6100eb60048036036100e69190810190610aa6565b610548565b6040516100f89190610e7e565b60405180910390f35b610109610670565b6040516101169190610e5c565b60405180910390f35b61013960048036036101349190810190610acf565b6106fe565b6040516101469190610efd565b60405180910390f35b60018054600181600116156101000203166002900480601f0160208091040260200160405190810160405280929190818152602001828054600181600116156101000203166002900480156101e55780601f106101ba576101008083540402835291602001916101e5565b820191906000526020600020905b8154815290600101906020018083116101c857829003601f168201915b505050505081565b6000809054906101000a900473ffffffffffffffffffffffffffffffffffffffff1673ffffffffffffffffffffffffffffffffffffffff163373ffffffffffffffffffffffffffffffffffffffff161461027c576040517f08c379a000000000000000000000000000000000000000000000000000000000815260040161027390610edd565b60405180910390fd5b60028190806001815401808255809150509060018203906000526020600020016000909192909190916101000a81548173ffffffffffffffffffffffffffffffffffffffff021916908373ffffffffffffffffffffffffffffffffffffffff160217905550507f5daa78f70ec2227622bb7db0a1d9e750860491853de15431e1e473d305381c21816040516103119190610e41565b60405180910390a150565b6000600360003373ffffffffffffffffffffffffffffffffffffffff1673ffffffffffffffffffffffffffffffffffffffff1681526020019081526020016000208390806001815401808255809150509060018203906000526020600020016000909192909190915090805190602001906103989291906108da565b50506004826040516103aa9190610e2a565b90815260200160405180910390208390806001815401808255809150509060018203906000526020600020016000909192909190915090805190602001906103f39291906108da565b505060058290806001815401808255809150509060018203906000526020600020016000909192909190915090805190602001906104329291906108da565b505061043c61095a565b83816000018190525033816020019073ffffffffffffffffffffffffffffffffffffffff16908173ffffffffffffffffffffffffffffffffffffffff168152505082816040018190525042816060018181525050806006856040516104a19190610e2a565b908152602001604051809103902060008201518160000190805190602001906104cb929190610998565b5060208201518160010160006101000a81548173ffffffffffffffffffffffffffffffffffffffff021916908373ffffffffffffffffffffffffffffffffffffffff160217905550604082015181600201908051906020019061052f929190610998565b5060608201518160030155905050600191505092915050565b6060600360008373ffffffffffffffffffffffffffffffffffffffff1673ffffffffffffffffffffffffffffffffffffffff168152602001908152602001600020805480602002602001604051908101604052809291908181526020016000905b82821015610665578382906000526020600020018054600181600116156101000203166002900480601f0160208091040260200160405190810160405280929190818152602001828054600181600116156101000203166002900480156106515780601f1061062657610100808354040283529160200191610651565b820191906000526020600020905b81548152906001019060200180831161063457829003601f168201915b5050505050815260200190600101906105a9565b505050509050919050565b606060028054806020026020016040519081016040528092919081815260200182805480156106f457602002820191906000526020600020905b8160009054906101000a900473ffffffffffffffffffffffffffffffffffffffff1673ffffffffffffffffffffffffffffffffffffffff16815260200190600101908083116106aa575b5050505050905090565b61070661095a565b6006826040516107169190610e2a565b9081526020016040518091039020604051806080016040529081600082018054600181600116156101000203166002900480601f0160208091040260200160405190810160405280929190818152602001828054600181600116156101000203166002900480156107c85780601f1061079d576101008083540402835291602001916107c8565b820191906000526020600020905b8154815290600101906020018083116107ab57829003601f168201915b505050505081526020016001820160009054906101000a900473ffffffffffffffffffffffffffffffffffffffff1673ffffffffffffffffffffffffffffffffffffffff1673ffffffffffffffffffffffffffffffffffffffff168152602001600282018054600181600116156101000203166002900480601f0160208091040260200160405190810160405280929190818152602001828054600181600116156101000203166002900480156108c05780601f10610895576101008083540402835291602001916108c0565b820191906000526020600020905b8154815290600101906020018083116108a357829003601f168201915b505050505081526020016003820154815250509050919050565b828054600181600116156101000203166002900490600052602060002090601f016020900481019282601f1061091b57805160ff1916838001178555610949565b82800160010185558215610949579182015b8281111561094857825182559160200191906001019061092d565b5b5090506109569190610a18565b5090565b604051806080016040528060608152602001600073ffffffffffffffffffffffffffffffffffffffff16815260200160608152602001600081525090565b828054600181600116156101000203166002900490600052602060002090601f016020900481019282601f106109d957805160ff1916838001178555610a07565b82800160010185558215610a07579182015b82811115610a065782518255916020019190600101906109eb565b5b509050610a149190610a18565b5090565b610a3a91905b80821115610a36576000816000905550600101610a1e565b5090565b90565b600081359050610a4c816110c8565b92915050565b600082601f830112610a6357600080fd5b8135610a76610a7182610f4c565b610f1f565b91508082526020830160208301858383011115610a9257600080fd5b610a9d838284611075565b50505092915050565b600060208284031215610ab857600080fd5b6000610ac684828501610a3d565b91505092915050565b600060208284031215610ae157600080fd5b600082013567ffffffffffffffff811115610afb57600080fd5b610b0784828501610a52565b91505092915050565b60008060408385031215610b2357600080fd5b600083013567ffffffffffffffff811115610b3d57600080fd5b610b4985828601610a52565b925050602083013567ffffffffffffffff811115610b6657600080fd5b610b7285828601610a52565b9150509250929050565b6000610b888383610ba8565b60208301905092915050565b6000610ba08383610cd9565b905092915050565b610bb18161102d565b82525050565b610bc08161102d565b82525050565b6000610bd182610f98565b610bdb8185610fde565b9350610be683610f78565b8060005b83811015610c17578151610bfe8882610b7c565b9750610c0983610fc4565b925050600181019050610bea565b5085935050505092915050565b6000610c2f82610fa3565b610c398185610fef565b935083602082028501610c4b85610f88565b8060005b85811015610c875784840389528151610c688582610b94565b9450610c7383610fd1565b925060208a01995050600181019050610c4f565b50829750879550505050505092915050565b610ca28161103f565b82525050565b6000610cb382610fb9565b610cbd8185611022565b9350610ccd818560208601611084565b80840191505092915050565b6000610ce482610fae565b610cee8185611000565b9350610cfe818560208601611084565b610d07816110b7565b840191505092915050565b6000610d1d82610fae565b610d278185611011565b9350610d37818560208601611084565b610d40816110b7565b840191505092915050565b6000610d58602d83611011565b91507f796f7520617265206e6f7420617574686f726973656420746f20706572666f7260008301527f6d2074686520616374696f6e21000000000000000000000000000000000000006020830152604082019050919050565b60006080830160008301518482036000860152610dce8282610cd9565b9150506020830151610de36020860182610ba8565b5060408301518482036040860152610dfb8282610cd9565b9150506060830151610e106060860182610e1b565b508091505092915050565b610e248161106b565b82525050565b6000610e368284610ca8565b915081905092915050565b6000602082019050610e566000830184610bb7565b92915050565b60006020820190508181036000830152610e768184610bc6565b905092915050565b60006020820190508181036000830152610e988184610c24565b905092915050565b6000602082019050610eb56000830184610c99565b92915050565b60006020820190508181036000830152610ed58184610d12565b905092915050565b60006020820190508181036000830152610ef681610d4b565b9050919050565b60006020820190508181036000830152610f178184610db1565b905092915050565b6000604051905081810181811067ffffffffffffffff82111715610f4257600080fd5b8060405250919050565b600067ffffffffffffffff821115610f6357600080fd5b601f19601f8301169050602081019050919050565b6000819050602082019050919050565b6000819050602082019050919050565b600081519050919050565b600081519050919050565b600081519050919050565b600081519050919050565b6000602082019050919050565b6000602082019050919050565b600082825260208201905092915050565b600082825260208201905092915050565b600082825260208201905092915050565b600082825260208201905092915050565b600081905092915050565b60006110388261104b565b9050919050565b60008115159050919050565b600073ffffffffffffffffffffffffffffffffffffffff82169050919050565b6000819050919050565b82818337600083830152505050565b60005b838110156110a2578082015181840152602081019050611087565b838111156110b1576000848401525b50505050565b6000601f19601f8301169050919050565b6110d18161102d565b81146110dc57600080fd5b5056fea365627a7a723158208a8637d7bbb45bb5bdb851a73cc57572af4a5e3918dc8a5f14eab5dab33013826c6578706572696d656e74616cf564736f6c63430005100040",
  "source": "pragma solidity^0.5.16;\r\npragma experimental ABIEncoderV2;\r\n\r\ncontract Health{\r\n  address owner;\r\n  constructor() public {\r\n    owner = msg.sender;\r\n  }\r\n  string public name = \"Health contract\";\r\n  address [] AuthorisedUsers;\r\n  mapping(address => string[])  UserReports; // maintain reports belonging to a user with address as key\r\n  mapping(string => string[])  UserReportsWithNames; // maintain reports belonging to a user with username as key\r\n  string [] UserNames;\r\n  struct File {\r\n    string fileHash;\r\n    address User;\r\n    string UserName;\r\n    uint dated;\r\n\r\n  }\r\n  mapping(string => File) Files;\r\n  event AuthAdded(\r\n    address _auth\r\n    );\r\n  modifier OnlyOwner(){\r\n    require(msg.sender == owner,\"you are not authorised to perform the action!\");\r\n    _;\r\n  }\r\n\r\n  function getAuthorisedUsers() public returns(address [] memory){\r\n    return AuthorisedUsers;\r\n  }\r\n  function getUserReports(address _address) public view returns(string [] memory){\r\n    return UserReports[_address];\r\n  }\r\n\r\n  function GetDetailedReport(string memory _fileHash) public returns(File memory){\r\n    return Files[_fileHash];\r\n  }\r\n  function addAuth(address _auth ) public OnlyOwner{\r\n    AuthorisedUsers.push(_auth);\r\n    emit AuthAdded(_auth); //emit an event when new authorisation is given\r\n  }\r\n\r\n  function SaveReport(string memory _fileHash,string memory _username) public returns(bool){\r\n    UserReports[msg.sender].push(_fileHash);\r\n    UserReportsWithNames[_username].push(_fileHash);\r\n    UserNames.push(_username);\r\n    File memory _file;\r\n    _file.fileHash = _fileHash;\r\n    _file.User = msg.sender;\r\n    _file.UserName = _username;\r\n    _file.dated = now;\r\n    Files[_fileHash] = _file;\r\n    return true;\r\n  }\r\n}\r\n",
  "sourcePath": "C:\\Users\\hp\\desktop\\b-healthy\\src\\contracts\\b-health.sol",
  "compiler": {
    "name": "solc",
    "version": "0.5.16+commit.9c3226ce.Emscripten.clang"
  },
  "schemaVersion": "3.0.23",
  "updatedAt": "2020-06-01T18:16:52.460Z",
  "networkType": "ethereum",
  "devdoc": {
    "methods": {}
  },
  "userdoc": {
    "methods": {}
  }
}