{
  "contractName": "Health",
  "abi": [
    {
      "constant": true,
      "inputs": [
        {
          "internalType": "address",
          "name": "",
          "type": "address"
        },
        {
          "internalType": "uint256",
          "name": "",
          "type": "uint256"
        }
      ],
      "name": "UserAuthorisations",
      "outputs": [
        {
          "internalType": "address",
          "name": "",
          "type": "address"
        }
      ],
      "payable": false,
      "stateMutability": "view",
      "type": "function"
    },
    {
      "constant": true,
      "inputs": [
        {
          "internalType": "address",
          "name": "",
          "type": "address"
        },
        {
          "internalType": "uint256",
          "name": "",
          "type": "uint256"
        }
      ],
      "name": "UserReports",
      "outputs": [
        {
          "internalType": "string",
          "name": "",
          "type": "string"
        }
      ],
      "payable": false,
      "stateMutability": "view",
      "type": "function"
    },
    {
      "constant": true,
      "inputs": [],
      "name": "name",
      "outputs": [
        {
          "internalType": "string",
          "name": "",
          "type": "string"
        }
      ],
      "payable": false,
      "stateMutability": "view",
      "type": "function"
    },
    {
      "constant": true,
      "inputs": [],
      "name": "getUserReports",
      "outputs": [
        {
          "internalType": "string[]",
          "name": "",
          "type": "string[]"
        }
      ],
      "payable": false,
      "stateMutability": "view",
      "type": "function"
    },
    {
      "constant": false,
      "inputs": [
        {
          "internalType": "string",
          "name": "_fileHash",
          "type": "string"
        }
      ],
      "name": "SaveReport",
      "outputs": [
        {
          "internalType": "bool",
          "name": "",
          "type": "bool"
        }
      ],
      "payable": false,
      "stateMutability": "nonpayable",
      "type": "function"
    }
  ],
  "bytecode": "0x60806040526040518060400160405280600f81526020017f4865616c746820636f6e747261637400000000000000000000000000000000008152506000908051906020019061004f929190610062565b5034801561005c57600080fd5b50610107565b828054600181600116156101000203166002900490600052602060002090601f016020900481019282601f106100a357805160ff19168380011785556100d1565b828001600101855582156100d1579182015b828111156100d05782518255916020019190600101906100b5565b5b5090506100de91906100e2565b5090565b61010491905b808211156101005760008160009055506001016100e8565b5090565b90565b610982806101166000396000f3fe608060405234801561001057600080fd5b50600436106100575760003560e01c806305861bc11461005c57806306fdde031461008c5780633c87558b146100aa578063679d43d0146100da578063716d726b146100f8575b600080fd5b610076600480360361007191908101906105a7565b610128565b6040516100839190610795565b60405180910390f35b6100946101ee565b6040516100a19190610795565b60405180910390f35b6100c460048036036100bf91908101906105e3565b61028c565b6040516100d1919061077a565b60405180910390f35b6100e2610313565b6040516100ef9190610758565b60405180910390f35b610112600480360361010d91908101906105a7565b610439565b60405161011f919061073d565b60405180910390f35b6002602052816000526040600020818154811061014157fe5b90600052602060002001600091509150508054600181600116156101000203166002900480601f0160208091040260200160405190810160405280929190818152602001828054600181600116156101000203166002900480156101e65780601f106101bb576101008083540402835291602001916101e6565b820191906000526020600020905b8154815290600101906020018083116101c957829003601f168201915b505050505081565b60008054600181600116156101000203166002900480601f0160208091040260200160405190810160405280929190818152602001828054600181600116156101000203166002900480156102845780601f1061025957610100808354040283529160200191610284565b820191906000526020600020905b81548152906001019060200180831161026757829003601f168201915b505050505081565b6000600260003373ffffffffffffffffffffffffffffffffffffffff1673ffffffffffffffffffffffffffffffffffffffff168152602001908152602001600020829080600181540180825580915050906001820390600052602060002001600090919290919091509080519060200190610308929190610484565b505060019050919050565b6060600260003373ffffffffffffffffffffffffffffffffffffffff1673ffffffffffffffffffffffffffffffffffffffff168152602001908152602001600020805480602002602001604051908101604052809291908181526020016000905b82821015610430578382906000526020600020018054600181600116156101000203166002900480601f01602080910402602001604051908101604052809291908181526020018280546001816001161561010002031660029004801561041c5780601f106103f15761010080835404028352916020019161041c565b820191906000526020600020905b8154815290600101906020018083116103ff57829003601f168201915b505050505081526020019060010190610374565b50505050905090565b6001602052816000526040600020818154811061045257fe5b906000526020600020016000915091509054906101000a900473ffffffffffffffffffffffffffffffffffffffff1681565b828054600181600116156101000203166002900490600052602060002090601f016020900481019282601f106104c557805160ff19168380011785556104f3565b828001600101855582156104f3579182015b828111156104f25782518255916020019190600101906104d7565b5b5090506105009190610504565b5090565b61052691905b8082111561052257600081600090555060010161050a565b5090565b90565b60008135905061053881610911565b92915050565b600082601f83011261054f57600080fd5b813561056261055d826107e4565b6107b7565b9150808252602083016020830185838301111561057e57600080fd5b6105898382846108be565b50505092915050565b6000813590506105a181610928565b92915050565b600080604083850312156105ba57600080fd5b60006105c885828601610529565b92505060206105d985828601610592565b9150509250929050565b6000602082840312156105f557600080fd5b600082013567ffffffffffffffff81111561060f57600080fd5b61061b8482850161053e565b91505092915050565b600061063083836106cb565b905092915050565b61064181610876565b82525050565b600061065282610820565b61065c8185610843565b93508360208202850161066e85610810565b8060005b858110156106aa578484038952815161068b8582610624565b945061069683610836565b925060208a01995050600181019050610672565b50829750879550505050505092915050565b6106c581610888565b82525050565b60006106d68261082b565b6106e08185610854565b93506106f08185602086016108cd565b6106f981610900565b840191505092915050565b600061070f8261082b565b6107198185610865565b93506107298185602086016108cd565b61073281610900565b840191505092915050565b60006020820190506107526000830184610638565b92915050565b600060208201905081810360008301526107728184610647565b905092915050565b600060208201905061078f60008301846106bc565b92915050565b600060208201905081810360008301526107af8184610704565b905092915050565b6000604051905081810181811067ffffffffffffffff821117156107da57600080fd5b8060405250919050565b600067ffffffffffffffff8211156107fb57600080fd5b601f19601f8301169050602081019050919050565b6000819050602082019050919050565b600081519050919050565b600081519050919050565b6000602082019050919050565b600082825260208201905092915050565b600082825260208201905092915050565b600082825260208201905092915050565b600061088182610894565b9050919050565b60008115159050919050565b600073ffffffffffffffffffffffffffffffffffffffff82169050919050565b6000819050919050565b82818337600083830152505050565b60005b838110156108eb5780820151818401526020810190506108d0565b838111156108fa576000848401525b50505050565b6000601f19601f8301169050919050565b61091a81610876565b811461092557600080fd5b50565b610931816108b4565b811461093c57600080fd5b5056fea365627a7a72315820a74b2f287a1872f4301f569edf0f85ce4aaf449cb711c80eaa561fdbd05f95c66c6578706572696d656e74616cf564736f6c63430005100040",
  "source": "pragma solidity^0.5.16;\r\npragma experimental ABIEncoderV2;\r\ncontract Health{\r\n  string public name = \"Health contract\";\r\n  mapping(address => address[]) public UserAuthorisations;\r\n  mapping(address => string[])  public UserReports;\r\n  function getUserReports() public view returns(string [] memory){\r\n    return UserReports[msg.sender];\r\n  }\r\n  function SaveReport(string memory _fileHash) public returns(bool){\r\n    UserReports[msg.sender].push(_fileHash);\r\n    return true;\r\n  }\r\n}\r\n",
  "sourcePath": "C:\\Users\\hp\\desktop\\b-healthy\\src\\contracts\\b-health.sol",
  "compiler": {
    "name": "solc",
    "version": "0.5.16+commit.9c3226ce.Emscripten.clang"
  },
  "schemaVersion": "3.0.23",
  "updatedAt": "2020-05-30T19:27:09.098Z",
  "networkType": "ethereum",
  "devdoc": {
    "methods": {}
  },
  "userdoc": {
    "methods": {}
  }
}