{
  "contractName": "Health",
  "abi": [
    {
      "inputs": [],
      "payable": false,
      "stateMutability": "nonpayable",
      "type": "constructor"
    },
    {
      "anonymous": false,
      "inputs": [
        {
          "indexed": false,
          "internalType": "address",
          "name": "_auth",
          "type": "address"
        }
      ],
      "name": "AuthAdded",
      "type": "event"
    },
    {
      "constant": true,
      "inputs": [],
      "name": "name",
      "outputs": [
        {
          "internalType": "string",
          "name": "",
          "type": "string"
        }
      ],
      "payable": false,
      "stateMutability": "view",
      "type": "function"
    },
    {
      "constant": true,
      "inputs": [],
      "name": "getUserNames",
      "outputs": [
        {
          "internalType": "string[]",
          "name": "",
          "type": "string[]"
        }
      ],
      "payable": false,
      "stateMutability": "view",
      "type": "function"
    },
    {
      "constant": false,
      "inputs": [],
      "name": "getAuthorisedUsers",
      "outputs": [
        {
          "internalType": "address[]",
          "name": "",
          "type": "address[]"
        }
      ],
      "payable": false,
      "stateMutability": "nonpayable",
      "type": "function"
    },
    {
      "constant": true,
      "inputs": [
        {
          "internalType": "string",
          "name": "_username",
          "type": "string"
        }
      ],
      "name": "getUserReportsWithUserName",
      "outputs": [
        {
          "internalType": "string[]",
          "name": "",
          "type": "string[]"
        }
      ],
      "payable": false,
      "stateMutability": "view",
      "type": "function"
    },
    {
      "constant": true,
      "inputs": [
        {
          "internalType": "address",
          "name": "_address",
          "type": "address"
        }
      ],
      "name": "getUserReports",
      "outputs": [
        {
          "internalType": "string[]",
          "name": "",
          "type": "string[]"
        }
      ],
      "payable": false,
      "stateMutability": "view",
      "type": "function"
    },
    {
      "constant": false,
      "inputs": [
        {
          "internalType": "string",
          "name": "_fileHash",
          "type": "string"
        }
      ],
      "name": "GetDetailedReport",
      "outputs": [
        {
          "components": [
            {
              "internalType": "string",
              "name": "fileHash",
              "type": "string"
            },
            {
              "internalType": "address",
              "name": "User",
              "type": "address"
            },
            {
              "internalType": "string",
              "name": "UserName",
              "type": "string"
            },
            {
              "internalType": "uint256",
              "name": "dated",
              "type": "uint256"
            }
          ],
          "internalType": "struct Health.File",
          "name": "",
          "type": "tuple"
        }
      ],
      "payable": false,
      "stateMutability": "nonpayable",
      "type": "function"
    },
    {
      "constant": false,
      "inputs": [
        {
          "internalType": "address",
          "name": "_auth",
          "type": "address"
        }
      ],
      "name": "addAuth",
      "outputs": [],
      "payable": false,
      "stateMutability": "nonpayable",
      "type": "function"
    },
    {
      "constant": false,
      "inputs": [
        {
          "internalType": "string",
          "name": "_fileHash",
          "type": "string"
        },
        {
          "internalType": "string",
          "name": "_username",
          "type": "string"
        }
      ],
      "name": "SaveReport",
      "outputs": [
        {
          "internalType": "bool",
          "name": "",
          "type": "bool"
        }
      ],
      "payable": false,
      "stateMutability": "nonpayable",
      "type": "function"
    }
  ],
  "bytecode": "0x60806040526040518060400160405280600f81526020017f4865616c746820636f6e747261637400000000000000000000000000000000008152506001908051906020019062000051929190620000a6565b503480156200005f57600080fd5b50336000806101000a81548173ffffffffffffffffffffffffffffffffffffffff021916908373ffffffffffffffffffffffffffffffffffffffff16021790555062000155565b828054600181600116156101000203166002900490600052602060002090601f016020900481019282601f10620000e957805160ff19168380011785556200011a565b828001600101855582156200011a579182015b8281111562000119578251825591602001919060010190620000fc565b5b5090506200012991906200012d565b5090565b6200015291905b808211156200014e57600081600090555060010162000134565b5090565b90565b6113ee80620001656000396000f3fe608060405234801561001057600080fd5b50600436106100885760003560e01c806370a05afc1161005b57806370a05afc146101275780637810cf2b146101575780637f68d5c414610175578063cbdce3991461019357610088565b806306fdde031461008d578063448ee169146100ab5780635422224e146100db5780636d69804a146100f7575b600080fd5b6100956101c3565b6040516100a29190611187565b60405180910390f35b6100c560048036036100c09190810190610d9b565b610261565b6040516100d2919061114a565b60405180910390f35b6100f560048036036100f09190810190610d72565b610368565b005b610111600480360361010c9190810190610ddc565b610497565b60405161011e919061116c565b60405180910390f35b610141600480360361013c9190810190610d72565b61072b565b60405161014e919061114a565b60405180910390f35b61015f610853565b60405161016c919061114a565b60405180910390f35b61017d61093c565b60405161018a9190611128565b60405180910390f35b6101ad60048036036101a89190810190610d9b565b6109ca565b6040516101ba91906111c9565b60405180910390f35b60018054600181600116156101000203166002900480601f0160208091040260200160405190810160405280929190818152602001828054600181600116156101000203166002900480156102595780601f1061022e57610100808354040283529160200191610259565b820191906000526020600020905b81548152906001019060200180831161023c57829003601f168201915b505050505081565b606060048260405161027391906110f6565b9081526020016040518091039020805480602002602001604051908101604052809291908181526020016000905b8282101561035d578382906000526020600020018054600181600116156101000203166002900480601f0160208091040260200160405190810160405280929190818152602001828054600181600116156101000203166002900480156103495780601f1061031e57610100808354040283529160200191610349565b820191906000526020600020905b81548152906001019060200180831161032c57829003601f168201915b5050505050815260200190600101906102a1565b505050509050919050565b6000809054906101000a900473ffffffffffffffffffffffffffffffffffffffff1673ffffffffffffffffffffffffffffffffffffffff163373ffffffffffffffffffffffffffffffffffffffff16146103f7576040517f08c379a00000000000000000000000000000000000000000000000000000000081526004016103ee906111a9565b60405180910390fd5b60028190806001815401808255809150509060018203906000526020600020016000909192909190916101000a81548173ffffffffffffffffffffffffffffffffffffffff021916908373ffffffffffffffffffffffffffffffffffffffff160217905550507f5daa78f70ec2227622bb7db0a1d9e750860491853de15431e1e473d305381c218160405161048c919061110d565b60405180910390a150565b6000600360003373ffffffffffffffffffffffffffffffffffffffff1673ffffffffffffffffffffffffffffffffffffffff168152602001908152602001600020839080600181540180825580915050906001820390600052602060002001600090919290919091509080519060200190610513929190610ba6565b505060048260405161052591906110f6565b908152602001604051809103902083908060018154018082558091505090600182039060005260206000200160009091929091909150908051906020019061056e929190610ba6565b505060058260405161058091906110f6565b908152602001604051809103902060009054906101000a900460ff166106175760068290806001815401808255809150509060018203906000526020600020016000909192909190915090805190602001906105dd929190610ba6565b505060016005836040516105f191906110f6565b908152602001604051809103902060006101000a81548160ff0219169083151502179055505b61061f610c26565b83816000018190525033816020019073ffffffffffffffffffffffffffffffffffffffff16908173ffffffffffffffffffffffffffffffffffffffff1681525050828160400181905250428160600181815250508060078560405161068491906110f6565b908152602001604051809103902060008201518160000190805190602001906106ae929190610c64565b5060208201518160010160006101000a81548173ffffffffffffffffffffffffffffffffffffffff021916908373ffffffffffffffffffffffffffffffffffffffff1602179055506040820151816002019080519060200190610712929190610c64565b5060608201518160030155905050600191505092915050565b6060600360008373ffffffffffffffffffffffffffffffffffffffff1673ffffffffffffffffffffffffffffffffffffffff168152602001908152602001600020805480602002602001604051908101604052809291908181526020016000905b82821015610848578382906000526020600020018054600181600116156101000203166002900480601f0160208091040260200160405190810160405280929190818152602001828054600181600116156101000203166002900480156108345780601f1061080957610100808354040283529160200191610834565b820191906000526020600020905b81548152906001019060200180831161081757829003601f168201915b50505050508152602001906001019061078c565b505050509050919050565b60606006805480602002602001604051908101604052809291908181526020016000905b82821015610933578382906000526020600020018054600181600116156101000203166002900480601f01602080910402602001604051908101604052809291908181526020018280546001816001161561010002031660029004801561091f5780601f106108f45761010080835404028352916020019161091f565b820191906000526020600020905b81548152906001019060200180831161090257829003601f168201915b505050505081526020019060010190610877565b50505050905090565b606060028054806020026020016040519081016040528092919081815260200182805480156109c057602002820191906000526020600020905b8160009054906101000a900473ffffffffffffffffffffffffffffffffffffffff1673ffffffffffffffffffffffffffffffffffffffff1681526020019060010190808311610976575b5050505050905090565b6109d2610c26565b6007826040516109e291906110f6565b9081526020016040518091039020604051806080016040529081600082018054600181600116156101000203166002900480601f016020809104026020016040519081016040528092919081815260200182805460018160011615610100020316600290048015610a945780601f10610a6957610100808354040283529160200191610a94565b820191906000526020600020905b815481529060010190602001808311610a7757829003601f168201915b505050505081526020016001820160009054906101000a900473ffffffffffffffffffffffffffffffffffffffff1673ffffffffffffffffffffffffffffffffffffffff1673ffffffffffffffffffffffffffffffffffffffff168152602001600282018054600181600116156101000203166002900480601f016020809104026020016040519081016040528092919081815260200182805460018160011615610100020316600290048015610b8c5780601f10610b6157610100808354040283529160200191610b8c565b820191906000526020600020905b815481529060010190602001808311610b6f57829003601f168201915b505050505081526020016003820154815250509050919050565b828054600181600116156101000203166002900490600052602060002090601f016020900481019282601f10610be757805160ff1916838001178555610c15565b82800160010185558215610c15579182015b82811115610c14578251825591602001919060010190610bf9565b5b509050610c229190610ce4565b5090565b604051806080016040528060608152602001600073ffffffffffffffffffffffffffffffffffffffff16815260200160608152602001600081525090565b828054600181600116156101000203166002900490600052602060002090601f016020900481019282601f10610ca557805160ff1916838001178555610cd3565b82800160010185558215610cd3579182015b82811115610cd2578251825591602001919060010190610cb7565b5b509050610ce09190610ce4565b5090565b610d0691905b80821115610d02576000816000905550600101610cea565b5090565b90565b600081359050610d1881611394565b92915050565b600082601f830112610d2f57600080fd5b8135610d42610d3d82611218565b6111eb565b91508082526020830160208301858383011115610d5e57600080fd5b610d69838284611341565b50505092915050565b600060208284031215610d8457600080fd5b6000610d9284828501610d09565b91505092915050565b600060208284031215610dad57600080fd5b600082013567ffffffffffffffff811115610dc757600080fd5b610dd384828501610d1e565b91505092915050565b60008060408385031215610def57600080fd5b600083013567ffffffffffffffff811115610e0957600080fd5b610e1585828601610d1e565b925050602083013567ffffffffffffffff811115610e3257600080fd5b610e3e85828601610d1e565b9150509250929050565b6000610e548383610e74565b60208301905092915050565b6000610e6c8383610fa5565b905092915050565b610e7d816112f9565b82525050565b610e8c816112f9565b82525050565b6000610e9d82611264565b610ea781856112aa565b9350610eb283611244565b8060005b83811015610ee3578151610eca8882610e48565b9750610ed583611290565b925050600181019050610eb6565b5085935050505092915050565b6000610efb8261126f565b610f0581856112bb565b935083602082028501610f1785611254565b8060005b85811015610f535784840389528151610f348582610e60565b9450610f3f8361129d565b925060208a01995050600181019050610f1b565b50829750879550505050505092915050565b610f6e8161130b565b82525050565b6000610f7f82611285565b610f8981856112ee565b9350610f99818560208601611350565b80840191505092915050565b6000610fb08261127a565b610fba81856112cc565b9350610fca818560208601611350565b610fd381611383565b840191505092915050565b6000610fe98261127a565b610ff381856112dd565b9350611003818560208601611350565b61100c81611383565b840191505092915050565b6000611024602d836112dd565b91507f796f7520617265206e6f7420617574686f726973656420746f20706572666f7260008301527f6d2074686520616374696f6e21000000000000000000000000000000000000006020830152604082019050919050565b6000608083016000830151848203600086015261109a8282610fa5565b91505060208301516110af6020860182610e74565b50604083015184820360408601526110c78282610fa5565b91505060608301516110dc60608601826110e7565b508091505092915050565b6110f081611337565b82525050565b60006111028284610f74565b915081905092915050565b60006020820190506111226000830184610e83565b92915050565b600060208201905081810360008301526111428184610e92565b905092915050565b600060208201905081810360008301526111648184610ef0565b905092915050565b60006020820190506111816000830184610f65565b92915050565b600060208201905081810360008301526111a18184610fde565b905092915050565b600060208201905081810360008301526111c281611017565b9050919050565b600060208201905081810360008301526111e3818461107d565b905092915050565b6000604051905081810181811067ffffffffffffffff8211171561120e57600080fd5b8060405250919050565b600067ffffffffffffffff82111561122f57600080fd5b601f19601f8301169050602081019050919050565b6000819050602082019050919050565b6000819050602082019050919050565b600081519050919050565b600081519050919050565b600081519050919050565b600081519050919050565b6000602082019050919050565b6000602082019050919050565b600082825260208201905092915050565b600082825260208201905092915050565b600082825260208201905092915050565b600082825260208201905092915050565b600081905092915050565b600061130482611317565b9050919050565b60008115159050919050565b600073ffffffffffffffffffffffffffffffffffffffff82169050919050565b6000819050919050565b82818337600083830152505050565b60005b8381101561136e578082015181840152602081019050611353565b8381111561137d576000848401525b50505050565b6000601f19601f8301169050919050565b61139d816112f9565b81146113a857600080fd5b5056fea365627a7a7231582044fefb767d42990a5ffe8835ec6d44645593c69d5e3380011e671b223ae8dbad6c6578706572696d656e74616cf564736f6c63430005100040",
  "source": "pragma solidity^0.5.16;\r\npragma experimental ABIEncoderV2;\r\n\r\ncontract Health{\r\n  address owner;\r\n  constructor() public {\r\n    owner = msg.sender;\r\n  }\r\n  string public name = \"Health contract\";\r\n  address [] AuthorisedUsers;\r\n  mapping(address => string[])  UserReports; // maintain reports belonging to a user with address as key\r\n  mapping(string => string[])  UserReportsWithNames; // maintain reports belonging to a user with username as key\r\n  mapping(string => bool) UserNameExists;\r\n  string [] UserNames;\r\n  struct File {\r\n    string fileHash;\r\n    address User;\r\n    string UserName;\r\n    uint dated;\r\n\r\n  }\r\n  mapping(string => File) Files;\r\n  event AuthAdded(\r\n    address _auth\r\n    );\r\n  modifier OnlyOwner(){\r\n    require(msg.sender == owner,\"you are not authorised to perform the action!\");\r\n    _;\r\n  }\r\n  function getUserNames() public view returns(string [] memory){\r\n    return UserNames;\r\n  }\r\n  function getAuthorisedUsers() public returns(address [] memory){\r\n    return AuthorisedUsers;\r\n  }\r\n  function getUserReportsWithUserName(string memory _username) public view returns(string [] memory){\r\n    return UserReportsWithNames[_username];\r\n  }\r\n\r\n  function getUserReports(address _address) public view returns(string [] memory){\r\n    return UserReports[_address];\r\n  }\r\n\r\n  function GetDetailedReport(string memory _fileHash) public returns(File memory){\r\n    return Files[_fileHash];\r\n  }\r\n  function addAuth(address _auth ) public OnlyOwner{\r\n    AuthorisedUsers.push(_auth);\r\n    emit AuthAdded(_auth); //emit an event when new authorisation is given\r\n  }\r\n\r\n  function SaveReport(string memory _fileHash,string memory _username) public returns(bool){\r\n    UserReports[msg.sender].push(_fileHash);\r\n    UserReportsWithNames[_username].push(_fileHash);\r\n    if(!UserNameExists[_username]){\r\n         UserNames.push(_username);\r\n         UserNameExists[_username] = true;\r\n       }\r\n    File memory _file;\r\n    _file.fileHash = _fileHash;\r\n    _file.User = msg.sender;\r\n    _file.UserName = _username;\r\n    _file.dated = now;\r\n    Files[_fileHash] = _file;\r\n    return true;\r\n  }\r\n}\r\n",
  "sourcePath": "C:\\Users\\hp\\desktop\\b-healthy\\src\\contracts\\b-health.sol",
  "compiler": {
    "name": "solc",
    "version": "0.5.16+commit.9c3226ce.Emscripten.clang"
  },
  "schemaVersion": "3.0.23",
  "updatedAt": "2020-06-02T17:53:34.545Z",
  "networkType": "ethereum",
  "devdoc": {
    "methods": {}
  },
  "userdoc": {
    "methods": {}
  }
}